{
  "_format": "hh-sol-artifact-1",
  "contractName": "ScoringEngine",
  "sourceName": "contracts/ScoringEngine.sol",
  "abi": [
    {
      "inputs": [
        {
          "internalType": "address",
          "name": "_vault",
          "type": "address"
        },
        {
          "internalType": "address",
          "name": "_registry",
          "type": "address"
        },
        {
          "internalType": "address",
          "name": "_coordinator",
          "type": "address"
        }
      ],
      "stateMutability": "nonpayable",
      "type": "constructor"
    },
    {
      "anonymous": false,
      "inputs": [
        {
          "indexed": true,
          "internalType": "uint256",
          "name": "roundId",
          "type": "uint256"
        },
        {
          "indexed": true,
          "internalType": "address",
          "name": "node",
          "type": "address"
        },
        {
          "indexed": false,
          "internalType": "int256",
          "name": "score",
          "type": "int256"
        }
      ],
      "name": "NodeRewarded",
      "type": "event"
    },
    {
      "anonymous": false,
      "inputs": [
        {
          "indexed": true,
          "internalType": "uint256",
          "name": "roundId",
          "type": "uint256"
        },
        {
          "indexed": true,
          "internalType": "address",
          "name": "node",
          "type": "address"
        },
        {
          "indexed": false,
          "internalType": "int256",
          "name": "score",
          "type": "int256"
        }
      ],
      "name": "NodeSlashed",
      "type": "event"
    },
    {
      "anonymous": false,
      "inputs": [
        {
          "indexed": true,
          "internalType": "uint256",
          "name": "roundId",
          "type": "uint256"
        },
        {
          "indexed": false,
          "internalType": "uint256",
          "name": "nodeCount",
          "type": "uint256"
        }
      ],
      "name": "RoundSettled",
      "type": "event"
    },
    {
      "inputs": [],
      "name": "coordinator",
      "outputs": [
        {
          "internalType": "address",
          "name": "",
          "type": "address"
        }
      ],
      "stateMutability": "view",
      "type": "function"
    },
    {
      "inputs": [],
      "name": "currentRound",
      "outputs": [
        {
          "internalType": "uint256",
          "name": "",
          "type": "uint256"
        }
      ],
      "stateMutability": "view",
      "type": "function"
    },
    {
      "inputs": [],
      "name": "getCurrentRound",
      "outputs": [
        {
          "internalType": "uint256",
          "name": "",
          "type": "uint256"
        }
      ],
      "stateMutability": "view",
      "type": "function"
    },
    {
      "inputs": [
        {
          "internalType": "uint256",
          "name": "round",
          "type": "uint256"
        },
        {
          "internalType": "address",
          "name": "node",
          "type": "address"
        }
      ],
      "name": "getRoundScore",
      "outputs": [
        {
          "internalType": "int256",
          "name": "",
          "type": "int256"
        }
      ],
      "stateMutability": "view",
      "type": "function"
    },
    {
      "inputs": [],
      "name": "registry",
      "outputs": [
        {
          "internalType": "contract NodeRegistry",
          "name": "",
          "type": "address"
        }
      ],
      "stateMutability": "view",
      "type": "function"
    },
    {
      "inputs": [],
      "name": "rewardRate",
      "outputs": [
        {
          "internalType": "uint256",
          "name": "",
          "type": "uint256"
        }
      ],
      "stateMutability": "view",
      "type": "function"
    },
    {
      "inputs": [
        {
          "internalType": "uint256",
          "name": "",
          "type": "uint256"
        },
        {
          "internalType": "address",
          "name": "",
          "type": "address"
        }
      ],
      "name": "roundScores",
      "outputs": [
        {
          "internalType": "int256",
          "name": "",
          "type": "int256"
        }
      ],
      "stateMutability": "view",
      "type": "function"
    },
    {
      "inputs": [],
      "name": "slashRate",
      "outputs": [
        {
          "internalType": "uint256",
          "name": "",
          "type": "uint256"
        }
      ],
      "stateMutability": "view",
      "type": "function"
    },
    {
      "inputs": [
        {
          "internalType": "address[]",
          "name": "nodes",
          "type": "address[]"
        },
        {
          "internalType": "int256[]",
          "name": "scores",
          "type": "int256[]"
        }
      ],
      "name": "submitRoundScores",
      "outputs": [],
      "stateMutability": "nonpayable",
      "type": "function"
    },
    {
      "inputs": [],
      "name": "threshold",
      "outputs": [
        {
          "internalType": "int256",
          "name": "",
          "type": "int256"
        }
      ],
      "stateMutability": "view",
      "type": "function"
    },
    {
      "inputs": [],
      "name": "vault",
      "outputs": [
        {
          "internalType": "contract StakeVault",
          "name": "",
          "type": "address"
        }
      ],
      "stateMutability": "view",
      "type": "function"
    }
  ],
  "bytecode": "0x608060405260c8600355600560045560026005553480156200002057600080fd5b50604051620010323803806200103283398181016040528101906200004691906200017b565b826000806101000a81548173ffffffffffffffffffffffffffffffffffffffff021916908373ffffffffffffffffffffffffffffffffffffffff16021790555081600160006101000a81548173ffffffffffffffffffffffffffffffffffffffff021916908373ffffffffffffffffffffffffffffffffffffffff16021790555080600660006101000a81548173ffffffffffffffffffffffffffffffffffffffff021916908373ffffffffffffffffffffffffffffffffffffffff160217905550505050620001d7565b600080fd5b600073ffffffffffffffffffffffffffffffffffffffff82169050919050565b6000620001438262000116565b9050919050565b620001558162000136565b81146200016157600080fd5b50565b60008151905062000175816200014a565b92915050565b60008060006060848603121562000197576200019662000111565b5b6000620001a78682870162000164565b9350506020620001ba8682870162000164565b9250506040620001cd8682870162000164565b9150509250925092565b610e4b80620001e76000396000f3fe608060405234801561001057600080fd5b50600436106100a95760003560e01c80637b103999116100715780637b103999146101545780638a19c8bc14610172578063a32bf59714610190578063cb36158b146101ae578063e341181d146101de578063fbfa77cf146101fc576100a9565b80630536c3c3146100ae5780630a009097146100de5780633fabcff4146100fc57806342cde4e8146101185780637b0a47ee14610136575b600080fd5b6100c860048036038101906100c39190610880565b61021a565b6040516100d591906108d9565b60405180910390f35b6100e661023f565b6040516100f39190610903565b60405180910390f35b610116600480360381019061011191906109d9565b610265565b005b61012061071b565b60405161012d91906108d9565b60405180910390f35b61013e610721565b60405161014b9190610a69565b60405180910390f35b61015c610727565b6040516101699190610ae3565b60405180910390f35b61017a61074d565b6040516101879190610a69565b60405180910390f35b610198610753565b6040516101a59190610a69565b60405180910390f35b6101c860048036038101906101c39190610880565b61075d565b6040516101d591906108d9565b60405180910390f35b6101e66107b8565b6040516101f39190610a69565b60405180910390f35b6102046107be565b6040516102119190610b31565b60405180910390f35b6007602052816000526040600020602052806000526040600020600091509150505481565b600660009054906101000a900473ffffffffffffffffffffffffffffffffffffffff1681565b600660009054906101000a900473ffffffffffffffffffffffffffffffffffffffff1673ffffffffffffffffffffffffffffffffffffffff163373ffffffffffffffffffffffffffffffffffffffff16146102f5576040517f08c379a00000000000000000000000000000000000000000000000000000000081526004016102ec90610ba9565b60405180910390fd5b81819050848490501461033d576040517f08c379a000000000000000000000000000000000000000000000000000000000815260040161033490610c15565b60405180910390fd5b6002600081548092919061035090610c64565b919050555060005b848490508110156106d757600085858381811061037857610377610cac565b5b905060200201602081019061038d9190610cdb565b905060008484848181106103a4576103a3610cac565b5b9050602002013590508060076000600254815260200190815260200160002060008473ffffffffffffffffffffffffffffffffffffffff1673ffffffffffffffffffffffffffffffffffffffff1681526020019081526020016000208190555060008060009054906101000a900473ffffffffffffffffffffffffffffffffffffffff1673ffffffffffffffffffffffffffffffffffffffff16637a766460846040518263ffffffff1660e01b81526004016104609190610903565b602060405180830381865afa15801561047d573d6000803e3d6000fd5b505050506040513d601f19601f820116820180604052508101906104a19190610d1d565b90506003548212156105b95760006064600454836104bf9190610d4a565b6104c99190610dbb565b905060008111156105625760008054906101000a900473ffffffffffffffffffffffffffffffffffffffff1673ffffffffffffffffffffffffffffffffffffffff166302fb4d8585836040518363ffffffff1660e01b815260040161052f929190610dec565b600060405180830381600087803b15801561054957600080fd5b505af115801561055d573d6000803e3d6000fd5b505050505b8373ffffffffffffffffffffffffffffffffffffffff166002547f244b7ca71912d79743d10830f866eea319f09c0c343900b865b3891e60ae8c21856040516105ab91906108d9565b60405180910390a3506106c1565b60006064600554836105cb9190610d4a565b6105d59190610dbb565b9050600081111561066e5760008054906101000a900473ffffffffffffffffffffffffffffffffffffffff1673ffffffffffffffffffffffffffffffffffffffff166321670f2285836040518363ffffffff1660e01b815260040161063b929190610dec565b600060405180830381600087803b15801561065557600080fd5b505af1158015610669573d6000803e3d6000fd5b505050505b8373ffffffffffffffffffffffffffffffffffffffff166002547f2c8c7b81792b77bf8bde532b2565683b268726cccca010646d0a2052609a21d1856040516106b791906108d9565b60405180910390a3505b50505080806106cf90610c64565b915050610358565b506002547f84ea2725ed7015ebac8f69258b09c394b1f22b1031d4393a1580b3935058d7dc8585905060405161070d9190610a69565b60405180910390a250505050565b60035481565b60055481565b600160009054906101000a900473ffffffffffffffffffffffffffffffffffffffff1681565b60025481565b6000600254905090565b60006007600084815260200190815260200160002060008373ffffffffffffffffffffffffffffffffffffffff1673ffffffffffffffffffffffffffffffffffffffff16815260200190815260200160002054905092915050565b60045481565b60008054906101000a900473ffffffffffffffffffffffffffffffffffffffff1681565b600080fd5b600080fd5b6000819050919050565b6107ff816107ec565b811461080a57600080fd5b50565b60008135905061081c816107f6565b92915050565b600073ffffffffffffffffffffffffffffffffffffffff82169050919050565b600061084d82610822565b9050919050565b61085d81610842565b811461086857600080fd5b50565b60008135905061087a81610854565b92915050565b60008060408385031215610897576108966107e2565b5b60006108a58582860161080d565b92505060206108b68582860161086b565b9150509250929050565b6000819050919050565b6108d3816108c0565b82525050565b60006020820190506108ee60008301846108ca565b92915050565b6108fd81610842565b82525050565b600060208201905061091860008301846108f4565b92915050565b600080fd5b600080fd5b600080fd5b60008083601f8401126109435761094261091e565b5b8235905067ffffffffffffffff8111156109605761095f610923565b5b60208301915083602082028301111561097c5761097b610928565b5b9250929050565b60008083601f8401126109995761099861091e565b5b8235905067ffffffffffffffff8111156109b6576109b5610923565b5b6020830191508360208202830111156109d2576109d1610928565b5b9250929050565b600080600080604085870312156109f3576109f26107e2565b5b600085013567ffffffffffffffff811115610a1157610a106107e7565b5b610a1d8782880161092d565b9450945050602085013567ffffffffffffffff811115610a4057610a3f6107e7565b5b610a4c87828801610983565b925092505092959194509250565b610a63816107ec565b82525050565b6000602082019050610a7e6000830184610a5a565b92915050565b6000819050919050565b6000610aa9610aa4610a9f84610822565b610a84565b610822565b9050919050565b6000610abb82610a8e565b9050919050565b6000610acd82610ab0565b9050919050565b610add81610ac2565b82525050565b6000602082019050610af86000830184610ad4565b92915050565b6000610b0982610a8e565b9050919050565b6000610b1b82610afe565b9050919050565b610b2b81610b10565b82525050565b6000602082019050610b466000830184610b22565b92915050565b600082825260208201905092915050565b7f4f6e6c7920636f6f7264696e61746f7200000000000000000000000000000000600082015250565b6000610b93601083610b4c565b9150610b9e82610b5d565b602082019050919050565b60006020820190508181036000830152610bc281610b86565b9050919050565b7f4c656e677468206d69736d617463680000000000000000000000000000000000600082015250565b6000610bff600f83610b4c565b9150610c0a82610bc9565b602082019050919050565b60006020820190508181036000830152610c2e81610bf2565b9050919050565b7f4e487b7100000000000000000000000000000000000000000000000000000000600052601160045260246000fd5b6000610c6f826107ec565b91507fffffffffffffffffffffffffffffffffffffffffffffffffffffffffffffffff8203610ca157610ca0610c35565b5b600182019050919050565b7f4e487b7100000000000000000000000000000000000000000000000000000000600052603260045260246000fd5b600060208284031215610cf157610cf06107e2565b5b6000610cff8482850161086b565b91505092915050565b600081519050610d17816107f6565b92915050565b600060208284031215610d3357610d326107e2565b5b6000610d4184828501610d08565b91505092915050565b6000610d55826107ec565b9150610d60836107ec565b9250828202610d6e816107ec565b91508282048414831517610d8557610d84610c35565b5b5092915050565b7f4e487b7100000000000000000000000000000000000000000000000000000000600052601260045260246000fd5b6000610dc6826107ec565b9150610dd1836107ec565b925082610de157610de0610d8c565b5b828204905092915050565b6000604082019050610e0160008301856108f4565b610e0e6020830184610a5a565b939250505056fea2646970667358221220b353c768f55d81bf60244f8e891f2e26925ffa2c6705033d23b954a07851e64b64736f6c63430008130033",
  "linkReferences": {},
  "deployedLinkReferences": {}
}