{
  "_format": "hh-sol-artifact-1",
  "contractName": "StakeVault",
  "sourceName": "contracts/StakeVault.sol",
  "abi": [
    {
      "inputs": [
        {
          "internalType": "address",
          "name": "_scoringEngine",
          "type": "address"
        }
      ],
      "stateMutability": "nonpayable",
      "type": "constructor"
    },
    {
      "anonymous": false,
      "inputs": [
        {
          "indexed": true,
          "internalType": "address",
          "name": "node",
          "type": "address"
        },
        {
          "indexed": false,
          "internalType": "uint256",
          "name": "amount",
          "type": "uint256"
        }
      ],
      "name": "Rewarded",
      "type": "event"
    },
    {
      "anonymous": false,
      "inputs": [
        {
          "indexed": true,
          "internalType": "address",
          "name": "node",
          "type": "address"
        },
        {
          "indexed": false,
          "internalType": "uint256",
          "name": "amount",
          "type": "uint256"
        }
      ],
      "name": "Slashed",
      "type": "event"
    },
    {
      "anonymous": false,
      "inputs": [
        {
          "indexed": true,
          "internalType": "address",
          "name": "node",
          "type": "address"
        },
        {
          "indexed": false,
          "internalType": "uint256",
          "name": "amount",
          "type": "uint256"
        }
      ],
      "name": "Staked",
      "type": "event"
    },
    {
      "inputs": [
        {
          "internalType": "address",
          "name": "node",
          "type": "address"
        }
      ],
      "name": "getStake",
      "outputs": [
        {
          "internalType": "uint256",
          "name": "",
          "type": "uint256"
        }
      ],
      "stateMutability": "view",
      "type": "function"
    },
    {
      "inputs": [],
      "name": "owner",
      "outputs": [
        {
          "internalType": "address",
          "name": "",
          "type": "address"
        }
      ],
      "stateMutability": "view",
      "type": "function"
    },
    {
      "inputs": [
        {
          "internalType": "address",
          "name": "node",
          "type": "address"
        },
        {
          "internalType": "uint256",
          "name": "amount",
          "type": "uint256"
        }
      ],
      "name": "reward",
      "outputs": [],
      "stateMutability": "nonpayable",
      "type": "function"
    },
    {
      "inputs": [],
      "name": "scoringEngine",
      "outputs": [
        {
          "internalType": "address",
          "name": "",
          "type": "address"
        }
      ],
      "stateMutability": "view",
      "type": "function"
    },
    {
      "inputs": [
        {
          "internalType": "address",
          "name": "_scoringEngine",
          "type": "address"
        }
      ],
      "name": "setScoringEngine",
      "outputs": [],
      "stateMutability": "nonpayable",
      "type": "function"
    },
    {
      "inputs": [
        {
          "internalType": "address",
          "name": "node",
          "type": "address"
        },
        {
          "internalType": "uint256",
          "name": "amount",
          "type": "uint256"
        }
      ],
      "name": "slash",
      "outputs": [],
      "stateMutability": "nonpayable",
      "type": "function"
    },
    {
      "inputs": [],
      "name": "stake",
      "outputs": [],
      "stateMutability": "payable",
      "type": "function"
    },
    {
      "inputs": [
        {
          "internalType": "address",
          "name": "",
          "type": "address"
        }
      ],
      "name": "stakes",
      "outputs": [
        {
          "internalType": "uint256",
          "name": "",
          "type": "uint256"
        }
      ],
      "stateMutability": "view",
      "type": "function"
    },
    {
      "inputs": [],
      "name": "withdraw",
      "outputs": [],
      "stateMutability": "nonpayable",
      "type": "function"
    },
    {
      "stateMutability": "payable",
      "type": "receive"
    }
  ],
  "bytecode": "0x608060405234801561001057600080fd5b50604051610e83380380610e838339818101604052810190610032919061011d565b80600160006101000a81548173ffffffffffffffffffffffffffffffffffffffff021916908373ffffffffffffffffffffffffffffffffffffffff16021790555033600260006101000a81548173ffffffffffffffffffffffffffffffffffffffff021916908373ffffffffffffffffffffffffffffffffffffffff1602179055505061014a565b600080fd5b600073ffffffffffffffffffffffffffffffffffffffff82169050919050565b60006100ea826100bf565b9050919050565b6100fa816100df565b811461010557600080fd5b50565b600081519050610117816100f1565b92915050565b600060208284031215610133576101326100ba565b5b600061014184828501610108565b91505092915050565b610d2a806101596000396000f3fe60806040526004361061008a5760003560e01c80633a4b66f1116100595780633a4b66f11461014e5780633ccfd60b146101585780637a7664601461016f5780638da5cb5b146101ac578063bbff3aaf146101d757610091565b806302fb4d851461009657806316934fc4146100bf57806321670f22146100fc57806339d24acd1461012557610091565b3661009157005b600080fd5b3480156100a257600080fd5b506100bd60048036038101906100b89190610929565b610202565b005b3480156100cb57600080fd5b506100e660048036038101906100e19190610969565b6103ba565b6040516100f391906109a5565b60405180910390f35b34801561010857600080fd5b50610123600480360381019061011e9190610929565b6103d2565b005b34801561013157600080fd5b5061014c60048036038101906101479190610969565b610509565b005b6101566105dd565b005b34801561016457600080fd5b5061016d610682565b005b34801561017b57600080fd5b5061019660048036038101906101919190610969565b6107fc565b6040516101a391906109a5565b60405180910390f35b3480156101b857600080fd5b506101c1610844565b6040516101ce91906109cf565b60405180910390f35b3480156101e357600080fd5b506101ec61086a565b6040516101f991906109cf565b60405180910390f35b600160009054906101000a900473ffffffffffffffffffffffffffffffffffffffff1673ffffffffffffffffffffffffffffffffffffffff163373ffffffffffffffffffffffffffffffffffffffff1614610292576040517f08c379a000000000000000000000000000000000000000000000000000000000815260040161028990610a47565b60405180910390fd5b806000808473ffffffffffffffffffffffffffffffffffffffff1673ffffffffffffffffffffffffffffffffffffffff168152602001908152602001600020541015610313576040517f08c379a000000000000000000000000000000000000000000000000000000000815260040161030a90610ab3565b60405180910390fd5b806000808473ffffffffffffffffffffffffffffffffffffffff1673ffffffffffffffffffffffffffffffffffffffff16815260200190815260200160002060008282546103619190610b02565b925050819055508173ffffffffffffffffffffffffffffffffffffffff167f4ed05e9673c26d2ed44f7ef6a7f2942df0ee3b5e1e17db4b99f9dcd261a339cd826040516103ae91906109a5565b60405180910390a25050565b60006020528060005260406000206000915090505481565b600160009054906101000a900473ffffffffffffffffffffffffffffffffffffffff1673ffffffffffffffffffffffffffffffffffffffff163373ffffffffffffffffffffffffffffffffffffffff1614610462576040517f08c379a000000000000000000000000000000000000000000000000000000000815260040161045990610a47565b60405180910390fd5b806000808473ffffffffffffffffffffffffffffffffffffffff1673ffffffffffffffffffffffffffffffffffffffff16815260200190815260200160002060008282546104b09190610b36565b925050819055508173ffffffffffffffffffffffffffffffffffffffff167fb3b7a071186534c03b40695710096f289fd4ed6c1a374aff0bb648955e4fe563826040516104fd91906109a5565b60405180910390a25050565b600260009054906101000a900473ffffffffffffffffffffffffffffffffffffffff1673ffffffffffffffffffffffffffffffffffffffff163373ffffffffffffffffffffffffffffffffffffffff1614610599576040517f08c379a000000000000000000000000000000000000000000000000000000000815260040161059090610bb6565b60405180910390fd5b80600160006101000a81548173ffffffffffffffffffffffffffffffffffffffff021916908373ffffffffffffffffffffffffffffffffffffffff16021790555050565b346000803373ffffffffffffffffffffffffffffffffffffffff1673ffffffffffffffffffffffffffffffffffffffff168152602001908152602001600020600082825461062b9190610b36565b925050819055503373ffffffffffffffffffffffffffffffffffffffff167f9e71bc8eea02a63969f509818f2dafb9254532904319f9dbda79b67bd34a5f3d3460405161067891906109a5565b60405180910390a2565b60008060003373ffffffffffffffffffffffffffffffffffffffff1673ffffffffffffffffffffffffffffffffffffffff16815260200190815260200160002054905060008111610708576040517f08c379a00000000000000000000000000000000000000000000000000000000081526004016106ff90610c22565b60405180910390fd5b60008060003373ffffffffffffffffffffffffffffffffffffffff1673ffffffffffffffffffffffffffffffffffffffff1681526020019081526020016000208190555060003373ffffffffffffffffffffffffffffffffffffffff168260405161077290610c73565b60006040518083038185875af1925050503d80600081146107af576040519150601f19603f3d011682016040523d82523d6000602084013e6107b4565b606091505b50509050806107f8576040517f08c379a00000000000000000000000000000000000000000000000000000000081526004016107ef90610cd4565b60405180910390fd5b5050565b60008060008373ffffffffffffffffffffffffffffffffffffffff1673ffffffffffffffffffffffffffffffffffffffff168152602001908152602001600020549050919050565b600260009054906101000a900473ffffffffffffffffffffffffffffffffffffffff1681565b600160009054906101000a900473ffffffffffffffffffffffffffffffffffffffff1681565b600080fd5b600073ffffffffffffffffffffffffffffffffffffffff82169050919050565b60006108c082610895565b9050919050565b6108d0816108b5565b81146108db57600080fd5b50565b6000813590506108ed816108c7565b92915050565b6000819050919050565b610906816108f3565b811461091157600080fd5b50565b600081359050610923816108fd565b92915050565b600080604083850312156109405761093f610890565b5b600061094e858286016108de565b925050602061095f85828601610914565b9150509250929050565b60006020828403121561097f5761097e610890565b5b600061098d848285016108de565b91505092915050565b61099f816108f3565b82525050565b60006020820190506109ba6000830184610996565b92915050565b6109c9816108b5565b82525050565b60006020820190506109e460008301846109c0565b92915050565b600082825260208201905092915050565b7f4f6e6c792073636f72696e6720656e67696e6500000000000000000000000000600082015250565b6000610a316013836109ea565b9150610a3c826109fb565b602082019050919050565b60006020820190508181036000830152610a6081610a24565b9050919050565b7f496e73756666696369656e74207374616b650000000000000000000000000000600082015250565b6000610a9d6012836109ea565b9150610aa882610a67565b602082019050919050565b60006020820190508181036000830152610acc81610a90565b9050919050565b7f4e487b7100000000000000000000000000000000000000000000000000000000600052601160045260246000fd5b6000610b0d826108f3565b9150610b18836108f3565b9250828203905081811115610b3057610b2f610ad3565b5b92915050565b6000610b41826108f3565b9150610b4c836108f3565b9250828201905080821115610b6457610b63610ad3565b5b92915050565b7f4f6e6c79206f776e657200000000000000000000000000000000000000000000600082015250565b6000610ba0600a836109ea565b9150610bab82610b6a565b602082019050919050565b60006020820190508181036000830152610bcf81610b93565b9050919050565b7f4e6f207374616b6520746f207769746864726177000000000000000000000000600082015250565b6000610c0c6014836109ea565b9150610c1782610bd6565b602082019050919050565b60006020820190508181036000830152610c3b81610bff565b9050919050565b600081905092915050565b50565b6000610c5d600083610c42565b9150610c6882610c4d565b600082019050919050565b6000610c7e82610c50565b9150819050919050565b7f5472616e73666572206661696c65640000000000000000000000000000000000600082015250565b6000610cbe600f836109ea565b9150610cc982610c88565b602082019050919050565b60006020820190508181036000830152610ced81610cb1565b905091905056fea2646970667358221220d8f767b8bd36ece10f06a356cc0c23d87f93c3b509c3c7fd99e183d5bcfbfcf464736f6c63430008130033",
  "linkReferences": {},
  "deployedLinkReferences": {}
}